:100000000C942A000C9434000C9434000C943400AA
:100010000C9434000C9434000C9434000C94340090
:100020000C9434000C9434000C9434000C94340080
:100030000C9434000C9434000C9434000C94340070
:100040000C9434000C9434000C9434000C94340060
:100050000C94340011241FBECFE5D8E0DEBFCDBF25
:100060000E9436000C944E010C9400008AB38FEF6E
:100070008ABB8BB31BBAA9E1B0E061E070E08BB33F
:100080001BBA8BB3806C8BBB88E893E1FD01319781
:10009000F1F70197D9F746E050E02BB341505040BB
:1000A000CB01042E02C0880F991F0A94E2F728277B
:1000B0002BBB2BB34E5F5F4FCB01042E02C0880FCA
:1000C000991F0A94E2F74250504028272BBB88E83A
:1000D00093E1FD013197F1F70197D9F741155105EA
:1000E000E1F641E050E02BB341505040CB01042EEB
:1000F00002C0880F991F0A94E2F728272BBB2BB365
:100100004E5F5F4FCB01042E02C0880F991F0A94E7
:10011000E2F728272BBB88E893E1FD013197F1F73F
:100120000197D9F747305105F1F68BB31BBA47E079
:1001300050E02BB3CB01042E02C0880F991F0A9404
:10014000E2F7282B2BBB80E197E2FD013197F1F715
:100150000197D9F7415050404330510551F744E0E1
:1001600050E02BB3CB01042E02C0880F991F0A94D4
:10017000E2F7809582238BBB80E197E2FD01319706
:10018000F1F70197D9F74F5F5F4F4730510549F7B6
:100190008BB31BBA47E050E02BB3CB01042E02C057
:1001A000880F991F0A94E2F7282B2BBB80E197E276
:1001B000FD013197F1F70197D9F7415050408FEF8A
:1001C0004F3F580749F78BB31BBA43E050E02BB3BE
:1001D000CB01042E02C0880F991F0A94E2F7282B46
:1001E0002BBB80E197E2FD013197F1F70197D9F739
:1001F000415050408FEF4F3F580749F78BB3807FF6
:100200008BBB44E050E02BB3CB01042E02C0880F1F
:10021000991F0A94E2F7282B2BBB80E197E2FD019E
:100220003197F1F70197D9F74F5F5F4F483051058C
:1002300051F78BB31BBA47E050E02BB3CB01042E30
:1002400002C0880F991F0A94E2F7282B2BBB80E18C
:1002500097E2FD013197F1F70197D9F741505040EE
:100260004330510551F78BB31BBA40E050E02BB33C
:10027000CB01042E02C0880F991F0A94E2F7282BA5
:100280002BBB80E197E2FD013197F1F70197D9F798
:100290004F5F5F4F4430510551F7F1CEF894FFCFD7
:00000001FF
