:100000000C942A000C9434000C9434000C943400AA
:100010000C9434000C9434000C9434000C94340090
:100020000C9434000C9434000C9434000C94340080
:100030000C9434000C9434000C9434000C94340070
:100040000C9434000C9434000C9434000C94340060
:100050000C94340011241FBECFE5D8E0DEBFCDBF25
:100060000E9436000C94DD000C9400000F931F9347
:10007000CF93DF930E946000C0E0D0E0CE010E94E9
:10008000A5002196C830D105C9F71BBA0E9493007C
:100090008C01C0E0D0E0C8010C2E02C09595879578
:1000A0000A94E2F780FF04C0CE010E94B00003C0B2
:1000B000CE010E94BB002196C430D10561F7E6CF86
:1000C00080EF87BB8FE088BB08959C012370307060
:1000D0002C5F3F4F41E050E0BA0102C0660F771F2E
:1000E0002A95E2F79B01209528BBEAEFF0E03197D3
:1000F000F1F726B360E070E030E02F703070969535
:1001000087959695879502C0440F551F8A95E2F70B
:10011000409550954F7050702417350711F461E0E9
:1001200070E0CB010895CF93DF93C0E0D0E0CE0123
:100130000E946500892B21F0CE01DF91CF910895B7
:100140002196C031D1059CF3F0CF9AB321E030E085
:1001500002C0220F331F8A95E2F7922B9ABB0895B3
:100160009BB321E030E002C0220F331F8A95E2F7F3
:10017000922B9BBB08959BB321E030E002C0220F7D
:10018000331F8A95E2F7209529232BBB08959BB353
:1001900021E030E002C0220F331F8A95E2F7922758
:1001A0009BBB089529B330E002C0359527958A9509
:0E01B000E2F721703070C9010895F894FFCF76
:00000001FF
